{
  "_format": "hh-sol-artifact-1",
  "contractName": "DXdaoERC20StakingRewardsDistributionFactory",
  "sourceName": "contracts/DXdaoERC20StakingRewardsDistributionFactory.sol",
  "abi": [
    {
      "inputs": [
        {
          "internalType": "address",
          "name": "_rewardTokensValidatorAddress",
          "type": "address"
        },
        {
          "internalType": "address",
          "name": "_stakableTokenValidatorAddress",
          "type": "address"
        },
        {
          "internalType": "address",
          "name": "_implementation",
          "type": "address"
        }
      ],
      "stateMutability": "nonpayable",
      "type": "constructor"
    },
    {
      "anonymous": false,
      "inputs": [
        {
          "indexed": false,
          "internalType": "address",
          "name": "owner",
          "type": "address"
        },
        {
          "indexed": false,
          "internalType": "address",
          "name": "deployedAt",
          "type": "address"
        }
      ],
      "name": "DistributionCreated",
      "type": "event"
    },
    {
      "anonymous": false,
      "inputs": [
        {
          "indexed": true,
          "internalType": "address",
          "name": "previousOwner",
          "type": "address"
        },
        {
          "indexed": true,
          "internalType": "address",
          "name": "newOwner",
          "type": "address"
        }
      ],
      "name": "OwnershipTransferred",
      "type": "event"
    },
    {
      "inputs": [
        {
          "internalType": "address[]",
          "name": "_rewardTokensAddresses",
          "type": "address[]"
        },
        {
          "internalType": "address",
          "name": "_stakableTokenAddress",
          "type": "address"
        },
        {
          "internalType": "uint256[]",
          "name": "_rewardAmounts",
          "type": "uint256[]"
        },
        {
          "internalType": "uint64",
          "name": "_startingTimestamp",
          "type": "uint64"
        },
        {
          "internalType": "uint64",
          "name": "_endingTimestmp",
          "type": "uint64"
        },
        {
          "internalType": "bool",
          "name": "_locked",
          "type": "bool"
        },
        {
          "internalType": "uint256",
          "name": "_stakingCap",
          "type": "uint256"
        }
      ],
      "name": "createDistribution",
      "outputs": [],
      "stateMutability": "nonpayable",
      "type": "function"
    },
    {
      "inputs": [
        {
          "internalType": "uint256",
          "name": "",
          "type": "uint256"
        }
      ],
      "name": "distributions",
      "outputs": [
        {
          "internalType": "contract IERC20StakingRewardsDistribution",
          "name": "",
          "type": "address"
        }
      ],
      "stateMutability": "view",
      "type": "function"
    },
    {
      "inputs": [],
      "name": "getDistributionsAmount",
      "outputs": [
        {
          "internalType": "uint256",
          "name": "",
          "type": "uint256"
        }
      ],
      "stateMutability": "view",
      "type": "function"
    },
    {
      "inputs": [],
      "name": "implementation",
      "outputs": [
        {
          "internalType": "address",
          "name": "",
          "type": "address"
        }
      ],
      "stateMutability": "view",
      "type": "function"
    },
    {
      "inputs": [],
      "name": "owner",
      "outputs": [
        {
          "internalType": "address",
          "name": "",
          "type": "address"
        }
      ],
      "stateMutability": "view",
      "type": "function"
    },
    {
      "inputs": [],
      "name": "pauseStaking",
      "outputs": [],
      "stateMutability": "nonpayable",
      "type": "function"
    },
    {
      "inputs": [],
      "name": "renounceOwnership",
      "outputs": [],
      "stateMutability": "nonpayable",
      "type": "function"
    },
    {
      "inputs": [],
      "name": "resumeStaking",
      "outputs": [],
      "stateMutability": "nonpayable",
      "type": "function"
    },
    {
      "inputs": [],
      "name": "rewardTokensValidator",
      "outputs": [
        {
          "internalType": "contract IRewardTokensValidator",
          "name": "",
          "type": "address"
        }
      ],
      "stateMutability": "view",
      "type": "function"
    },
    {
      "inputs": [
        {
          "internalType": "address",
          "name": "_rewardTokensValidatorAddress",
          "type": "address"
        }
      ],
      "name": "setRewardTokensValidator",
      "outputs": [],
      "stateMutability": "nonpayable",
      "type": "function"
    },
    {
      "inputs": [
        {
          "internalType": "address",
          "name": "_stakableTokenValidatorAddress",
          "type": "address"
        }
      ],
      "name": "setStakableTokenValidator",
      "outputs": [],
      "stateMutability": "nonpayable",
      "type": "function"
    },
    {
      "inputs": [],
      "name": "stakableTokenValidator",
      "outputs": [
        {
          "internalType": "contract IStakableTokenValidator",
          "name": "",
          "type": "address"
        }
      ],
      "stateMutability": "view",
      "type": "function"
    },
    {
      "inputs": [],
      "name": "stakingPaused",
      "outputs": [
        {
          "internalType": "bool",
          "name": "",
          "type": "bool"
        }
      ],
      "stateMutability": "view",
      "type": "function"
    },
    {
      "inputs": [
        {
          "internalType": "address",
          "name": "newOwner",
          "type": "address"
        }
      ],
      "name": "transferOwnership",
      "outputs": [],
      "stateMutability": "nonpayable",
      "type": "function"
    },
    {
      "inputs": [
        {
          "internalType": "address",
          "name": "_implementation",
          "type": "address"
        }
      ],
      "name": "upgradeImplementation",
      "outputs": [],
      "stateMutability": "nonpayable",
      "type": "function"
    }
  ],
  "bytecode": "0x60806040523480156200001157600080fd5b50604051620012cd380380620012cd8339810160408190526200003491620000f2565b80600062000041620000d1565b600080546001600160a01b0319166001600160a01b0383169081178255604051929350917f8be0079c531659141344cd1fd0a4f28419497f9722a3daafe3b4186f6b6457e0908290a350600180546001600160a01b03199081166001600160a01b03938416179091556003805482169583169590951790945560048054909416921691909117909155506200013b565b3390565b80516001600160a01b0381168114620000ed57600080fd5b919050565b60008060006060848603121562000107578283fd5b6200011284620000d5565b92506200012260208501620000d5565b91506200013260408501620000d5565b90509250925092565b611182806200014b6000396000f3fe608060405234801561001057600080fd5b50600436106100f45760003560e01c80637475f91311610097578063bbb781cc11610066578063bbb781cc146101a0578063d5eeaef7146101b5578063f2fde38b146101ca578063f999c506146101dd576100f4565b80637475f9131461016a57806383f94db7146101725780638da5cb5b146101855780639d684baa1461018d576100f4565b80634487d3df116100d35780634487d3df1461013f57806344d15b23146101525780635c60da1b1461015a578063715018a614610162576100f4565b8062083727146100f95780630fed647d1461010e5780632c8908ff1461012c575b600080fd5b61010c610107366004610c5f565b6101e5565b005b61011661024f565b6040516101239190610def565b60405180910390f35b61010c61013a366004610c97565b61025e565b61011661014d366004610d73565b61035f565b610116610389565b610116610398565b61010c6103a7565b61010c610430565b61010c610180366004610c5f565b6104a7565b610116610508565b61010c61019b366004610c5f565b610517565b6101a8610578565b6040516101239190610edc565b6101bd610588565b60405161012391906110ca565b61010c6101d8366004610c5f565b61058e565b61010c61064e565b6101ed6106cc565b6001600160a01b03166101fe610508565b6001600160a01b03161461022d5760405162461bcd60e51b815260040161022490611014565b60405180910390fd5b600380546001600160a01b0319166001600160a01b0392909216919091179055565b6004546001600160a01b031681565b6003546001600160a01b0316156102d25760035460405163191fc58d60e31b81526001600160a01b039091169063c8fe2c68906102a1908c908c90600401610e41565b60006040518083038186803b1580156102b957600080fd5b505afa1580156102cd573d6000803e3d6000fd5b505050505b6004546001600160a01b0316156103435760048054604051639532b6ab60e01b81526001600160a01b0390911691639532b6ab91610312918b9101610def565b60006040518083038186803b15801561032a57600080fd5b505afa15801561033e573d6000803e3d6000fd5b505050505b6103548989898989898989896106d0565b505050505050505050565b6002818154811061036f57600080fd5b6000918252602090912001546001600160a01b0316905081565b6003546001600160a01b031681565b6001546001600160a01b031681565b6103af6106cc565b6001600160a01b03166103c0610508565b6001600160a01b0316146103e65760405162461bcd60e51b815260040161022490611014565b600080546040516001600160a01b03909116907f8be0079c531659141344cd1fd0a4f28419497f9722a3daafe3b4186f6b6457e0908390a3600080546001600160a01b0319169055565b6104386106cc565b6001600160a01b0316610449610508565b6001600160a01b03161461046f5760405162461bcd60e51b815260040161022490611014565b600154600160a01b900460ff166104985760405162461bcd60e51b815260040161022490610fc5565b6001805460ff60a01b19169055565b6104af6106cc565b6001600160a01b03166104c0610508565b6001600160a01b0316146104e65760405162461bcd60e51b815260040161022490611014565b600180546001600160a01b0319166001600160a01b0392909216919091179055565b6000546001600160a01b031690565b61051f6106cc565b6001600160a01b0316610530610508565b6001600160a01b0316146105565760405162461bcd60e51b815260040161022490611014565b600480546001600160a01b0319166001600160a01b0392909216919091179055565b600154600160a01b900460ff1681565b60025490565b6105966106cc565b6001600160a01b03166105a7610508565b6001600160a01b0316146105cd5760405162461bcd60e51b815260040161022490611014565b6001600160a01b0381166105f35760405162461bcd60e51b815260040161022490610f1a565b600080546040516001600160a01b03808516939216917f8be0079c531659141344cd1fd0a4f28419497f9722a3daafe3b4186f6b6457e091a3600080546001600160a01b0319166001600160a01b0392909216919091179055565b6106566106cc565b6001600160a01b0316610667610508565b6001600160a01b03161461068d5760405162461bcd60e51b815260040161022490611014565b600154600160a01b900460ff16156106b75760405162461bcd60e51b815260040161022490610f60565b6001805460ff60a01b1916600160a01b179055565b3390565b6001546000906106e8906001600160a01b0316610980565b905060005b898110156107a857600088888381811061071757634e487b7160e01b600052603260045260246000fd5b9050602002013511156107965761079633838a8a8581811061074957634e487b7160e01b600052603260045260246000fd5b905060200201358e8e8681811061077057634e487b7160e01b600052603260045260246000fd5b90506020020160208101906107859190610c5f565b6001600160a01b03169291906109f4565b806107a0816110ff565b9150506106ed565b506040516311d1371b60e11b815281906001600160a01b038216906323a26e36906107e7908e908e908e908e908e908e908e908e908e90600401610e55565b600060405180830381600087803b15801561080157600080fd5b505af1158015610815573d6000803e3d6000fd5b505050506000306001600160a01b0316638da5cb5b6040518163ffffffff1660e01b815260040160206040518083038186803b15801561085457600080fd5b505afa158015610868573d6000803e3d6000fd5b505050506040513d601f19601f8201168201806040525081019061088c9190610c7b565b60405163f2fde38b60e01b81529091506001600160a01b0383169063f2fde38b906108bb908490600401610def565b600060405180830381600087803b1580156108d557600080fd5b505af11580156108e9573d6000803e3d6000fd5b5050600280546001810182556000919091527f405787fa12a823e0f2b7631cc41b3ba8828b3321ca811111fa75cd3aa3bb5ace0180546001600160a01b0319166001600160a01b03861617905550506040517fc017437e795c074edadc242e8f0b868fb614ed8d2923b9a58cbc52799e8b9b279061096a9033908590610e03565b60405180910390a1505050505050505050505050565b6000604051733d602d80600a3d3981f3363d3d373d3d3d363d7360601b81528260601b60148201526e5af43d82803e903d91602b57fd5bf360881b60288201526037816000f09150506001600160a01b0381166109ef5760405162461bcd60e51b815260040161022490610fe4565b919050565b610a4c846323b872dd60e01b858585604051602401610a1593929190610e1d565b60408051601f198184030181529190526020810180516001600160e01b03166001600160e01b031990931692909217909152610a52565b50505050565b6000610aa7826040518060400160405280602081526020017f5361666545524332303a206c6f772d6c6576656c2063616c6c206661696c6564815250856001600160a01b0316610ae69092919063ffffffff16565b805190915015610ae15780806020019051810190610ac59190610d57565b610ae15760405162461bcd60e51b815260040161022490611080565b505050565b6060610af58484600085610aff565b90505b9392505050565b606082471015610b215760405162461bcd60e51b815260040161022490610f7f565b610b2a85610bbf565b610b465760405162461bcd60e51b815260040161022490611049565b600080866001600160a01b03168587604051610b629190610dd3565b60006040518083038185875af1925050503d8060008114610b9f576040519150601f19603f3d011682016040523d82523d6000602084013e610ba4565b606091505b5091509150610bb4828286610bc5565b979650505050505050565b3b151590565b60608315610bd4575081610af8565b825115610be45782518084602001fd5b8160405162461bcd60e51b81526004016102249190610ee7565b60008083601f840112610c0f578182fd5b50813567ffffffffffffffff811115610c26578182fd5b6020830191508360208083028501011115610c4057600080fd5b9250929050565b803567ffffffffffffffff811681146109ef57600080fd5b600060208284031215610c70578081fd5b8135610af881611126565b600060208284031215610c8c578081fd5b8151610af881611126565b600080600080600080600080600060e08a8c031215610cb4578485fd5b893567ffffffffffffffff80821115610ccb578687fd5b610cd78d838e01610bfe565b909b50995060208c01359150610cec82611126565b90975060408b01359080821115610d01578687fd5b50610d0e8c828d01610bfe565b9097509550610d21905060608b01610c47565b9350610d2f60808b01610c47565b925060a08a0135610d3f8161113e565b8092505060c08a013590509295985092959850929598565b600060208284031215610d68578081fd5b8151610af88161113e565b600060208284031215610d84578081fd5b5035919050565b60008284526020808501945082825b85811015610dc8578135610dad81611126565b6001600160a01b031687529582019590820190600101610d9a565b509495945050505050565b60008251610de58184602087016110d3565b9190910192915050565b6001600160a01b0391909116815260200190565b6001600160a01b0392831681529116602082015260400190565b6001600160a01b039384168152919092166020820152604081019190915260600190565b600060208252610af5602083018486610d8b565b600060e08252610e6960e083018b8d610d8b565b6001600160a01b038a16602084015282810360408401528781526001600160fb1b03881115610e96578182fd5b60208802808a60208401370160200190815267ffffffffffffffff958616606083015293909416608085015290151560a084015260c09092019190915295945050505050565b901515815260200190565b6000602082528251806020840152610f068160408501602087016110d3565b601f01601f19169190910160400192915050565b60208082526026908201527f4f776e61626c653a206e6577206f776e657220697320746865207a65726f206160408201526564647265737360d01b606082015260800190565b602080825260059082015264535246303160d81b604082015260600190565b60208082526026908201527f416464726573733a20696e73756666696369656e742062616c616e636520666f6040820152651c8818d85b1b60d21b606082015260800190565b60208082526005908201526429a923181960d91b604082015260600190565b602080825260169082015275115490cc4c4d8dce8818dc99585d194819985a5b195960521b604082015260600190565b6020808252818101527f4f776e61626c653a2063616c6c6572206973206e6f7420746865206f776e6572604082015260600190565b6020808252601d908201527f416464726573733a2063616c6c20746f206e6f6e2d636f6e7472616374000000604082015260600190565b6020808252602a908201527f5361666545524332303a204552433230206f7065726174696f6e20646964206e6040820152691bdd081cdd58d8d9595960b21b606082015260800190565b90815260200190565b60005b838110156110ee5781810151838201526020016110d6565b83811115610a4c5750506000910152565b600060001982141561111f57634e487b7160e01b81526011600452602481fd5b5060010190565b6001600160a01b038116811461113b57600080fd5b50565b801515811461113b57600080fdfea264697066735822122054164e0b1f0aeaf16e6bfaf401af1e124e6d4fb44bcb9ec376de9d8d2bff72ca64736f6c63430008000033",
  "linkReferences": {},
  "deployedLinkReferences": {}
}