{
  "_format": "hh-sol-artifact-1",
  "contractName": "ERC20StakingRewardsDistributionFactory",
  "sourceName": "contracts/ERC20StakingRewardsDistributionFactory.sol",
  "abi": [
    {
      "inputs": [
        {
          "internalType": "address",
          "name": "_implementation",
          "type": "address"
        }
      ],
      "stateMutability": "nonpayable",
      "type": "constructor"
    },
    {
      "anonymous": false,
      "inputs": [
        {
          "indexed": false,
          "internalType": "address",
          "name": "owner",
          "type": "address"
        },
        {
          "indexed": false,
          "internalType": "address",
          "name": "deployedAt",
          "type": "address"
        }
      ],
      "name": "DistributionCreated",
      "type": "event"
    },
    {
      "anonymous": false,
      "inputs": [
        {
          "indexed": true,
          "internalType": "address",
          "name": "previousOwner",
          "type": "address"
        },
        {
          "indexed": true,
          "internalType": "address",
          "name": "newOwner",
          "type": "address"
        }
      ],
      "name": "OwnershipTransferred",
      "type": "event"
    },
    {
      "inputs": [
        {
          "internalType": "address[]",
          "name": "_rewardTokenAddresses",
          "type": "address[]"
        },
        {
          "internalType": "address",
          "name": "_stakableTokenAddress",
          "type": "address"
        },
        {
          "internalType": "uint256[]",
          "name": "_rewardAmounts",
          "type": "uint256[]"
        },
        {
          "internalType": "uint64",
          "name": "_startingTimestamp",
          "type": "uint64"
        },
        {
          "internalType": "uint64",
          "name": "_endingTimestamp",
          "type": "uint64"
        },
        {
          "internalType": "bool",
          "name": "_locked",
          "type": "bool"
        },
        {
          "internalType": "uint256",
          "name": "_stakingCap",
          "type": "uint256"
        }
      ],
      "name": "createDistribution",
      "outputs": [],
      "stateMutability": "nonpayable",
      "type": "function"
    },
    {
      "inputs": [
        {
          "internalType": "uint256",
          "name": "",
          "type": "uint256"
        }
      ],
      "name": "distributions",
      "outputs": [
        {
          "internalType": "contract IERC20StakingRewardsDistribution",
          "name": "",
          "type": "address"
        }
      ],
      "stateMutability": "view",
      "type": "function"
    },
    {
      "inputs": [],
      "name": "getDistributionsAmount",
      "outputs": [
        {
          "internalType": "uint256",
          "name": "",
          "type": "uint256"
        }
      ],
      "stateMutability": "view",
      "type": "function"
    },
    {
      "inputs": [],
      "name": "implementation",
      "outputs": [
        {
          "internalType": "address",
          "name": "",
          "type": "address"
        }
      ],
      "stateMutability": "view",
      "type": "function"
    },
    {
      "inputs": [],
      "name": "owner",
      "outputs": [
        {
          "internalType": "address",
          "name": "",
          "type": "address"
        }
      ],
      "stateMutability": "view",
      "type": "function"
    },
    {
      "inputs": [],
      "name": "pauseStaking",
      "outputs": [],
      "stateMutability": "nonpayable",
      "type": "function"
    },
    {
      "inputs": [],
      "name": "renounceOwnership",
      "outputs": [],
      "stateMutability": "nonpayable",
      "type": "function"
    },
    {
      "inputs": [],
      "name": "resumeStaking",
      "outputs": [],
      "stateMutability": "nonpayable",
      "type": "function"
    },
    {
      "inputs": [],
      "name": "stakingPaused",
      "outputs": [
        {
          "internalType": "bool",
          "name": "",
          "type": "bool"
        }
      ],
      "stateMutability": "view",
      "type": "function"
    },
    {
      "inputs": [
        {
          "internalType": "address",
          "name": "newOwner",
          "type": "address"
        }
      ],
      "name": "transferOwnership",
      "outputs": [],
      "stateMutability": "nonpayable",
      "type": "function"
    },
    {
      "inputs": [
        {
          "internalType": "address",
          "name": "_implementation",
          "type": "address"
        }
      ],
      "name": "upgradeImplementation",
      "outputs": [],
      "stateMutability": "nonpayable",
      "type": "function"
    }
  ],
  "bytecode": "0x608060405234801561001057600080fd5b5060405161101f38038061101f83398101604081905261002f916100ac565b60006100396100a8565b600080546001600160a01b0319166001600160a01b0383169081178255604051929350917f8be0079c531659141344cd1fd0a4f28419497f9722a3daafe3b4186f6b6457e0908290a350600180546001600160a01b0319166001600160a01b03929092169190911790556100da565b3390565b6000602082840312156100bd578081fd5b81516001600160a01b03811681146100d3578182fd5b9392505050565b610f36806100e96000396000f3fe608060405234801561001057600080fd5b50600436106100a95760003560e01c806383f94db71161007157806383f94db7146101045780638da5cb5b14610117578063bbb781cc1461011f578063d5eeaef714610134578063f2fde38b14610149578063f999c5061461015c576100a9565b80632c8908ff146100ae5780634487d3df146100c35780635c60da1b146100ec578063715018a6146100f45780637475f913146100fc575b600080fd5b6100c16100bc366004610a35565b610164565b005b6100d66100d1366004610b11565b610414565b6040516100e39190610b9a565b60405180910390f35b6100d661043e565b6100c161044d565b6100c16104df565b6100c16101123660046109fd565b610556565b6100d66105b7565b6101276105c6565b6040516100e39190610c90565b61013c6105d6565b6040516100e39190610e7e565b6100c16101573660046109fd565b6105dc565b6100c161069c565b60015460009061017c906001600160a01b031661071a565b905060005b8981101561023c5760008888838181106101ab57634e487b7160e01b600052603260045260246000fd5b90506020020135111561022a5761022a33838a8a858181106101dd57634e487b7160e01b600052603260045260246000fd5b905060200201358e8e8681811061020457634e487b7160e01b600052603260045260246000fd5b905060200201602081019061021991906109fd565b6001600160a01b031692919061078e565b8061023481610eb3565b915050610181565b506040516311d1371b60e11b815281906001600160a01b038216906323a26e369061027b908e908e908e908e908e908e908e908e908e90600401610bec565b600060405180830381600087803b15801561029557600080fd5b505af11580156102a9573d6000803e3d6000fd5b505050506000306001600160a01b0316638da5cb5b6040518163ffffffff1660e01b815260040160206040518083038186803b1580156102e857600080fd5b505afa1580156102fc573d6000803e3d6000fd5b505050506040513d601f19601f820116820180604052508101906103209190610a19565b60405163f2fde38b60e01b81529091506001600160a01b0383169063f2fde38b9061034f908490600401610b9a565b600060405180830381600087803b15801561036957600080fd5b505af115801561037d573d6000803e3d6000fd5b5050600280546001810182556000919091527f405787fa12a823e0f2b7631cc41b3ba8828b3321ca811111fa75cd3aa3bb5ace0180546001600160a01b0319166001600160a01b03861617905550506040517fc017437e795c074edadc242e8f0b868fb614ed8d2923b9a58cbc52799e8b9b27906103fe9033908590610bae565b60405180910390a1505050505050505050505050565b6002818154811061042457600080fd5b6000918252602090912001546001600160a01b0316905081565b6001546001600160a01b031681565b6104556107ec565b6001600160a01b03166104666105b7565b6001600160a01b0316146104955760405162461bcd60e51b815260040161048c90610dc8565b60405180910390fd5b600080546040516001600160a01b03909116907f8be0079c531659141344cd1fd0a4f28419497f9722a3daafe3b4186f6b6457e0908390a3600080546001600160a01b0319169055565b6104e76107ec565b6001600160a01b03166104f86105b7565b6001600160a01b03161461051e5760405162461bcd60e51b815260040161048c90610dc8565b600154600160a01b900460ff166105475760405162461bcd60e51b815260040161048c90610d79565b6001805460ff60a01b19169055565b61055e6107ec565b6001600160a01b031661056f6105b7565b6001600160a01b0316146105955760405162461bcd60e51b815260040161048c90610dc8565b600180546001600160a01b0319166001600160a01b0392909216919091179055565b6000546001600160a01b031690565b600154600160a01b900460ff1681565b60025490565b6105e46107ec565b6001600160a01b03166105f56105b7565b6001600160a01b03161461061b5760405162461bcd60e51b815260040161048c90610dc8565b6001600160a01b0381166106415760405162461bcd60e51b815260040161048c90610cce565b600080546040516001600160a01b03808516939216917f8be0079c531659141344cd1fd0a4f28419497f9722a3daafe3b4186f6b6457e091a3600080546001600160a01b0319166001600160a01b0392909216919091179055565b6106a46107ec565b6001600160a01b03166106b56105b7565b6001600160a01b0316146106db5760405162461bcd60e51b815260040161048c90610dc8565b600154600160a01b900460ff16156107055760405162461bcd60e51b815260040161048c90610d14565b6001805460ff60a01b1916600160a01b179055565b6000604051733d602d80600a3d3981f3363d3d373d3d3d363d7360601b81528260601b60148201526e5af43d82803e903d91602b57fd5bf360881b60288201526037816000f09150506001600160a01b0381166107895760405162461bcd60e51b815260040161048c90610d98565b919050565b6107e6846323b872dd60e01b8585856040516024016107af93929190610bc8565b60408051601f198184030181529190526020810180516001600160e01b03166001600160e01b0319909316929092179091526107f0565b50505050565b3390565b6000610845826040518060400160405280602081526020017f5361666545524332303a206c6f772d6c6576656c2063616c6c206661696c6564815250856001600160a01b03166108849092919063ffffffff16565b80519091501561087f57808060200190518101906108639190610af5565b61087f5760405162461bcd60e51b815260040161048c90610e34565b505050565b6060610893848460008561089d565b90505b9392505050565b6060824710156108bf5760405162461bcd60e51b815260040161048c90610d33565b6108c88561095d565b6108e45760405162461bcd60e51b815260040161048c90610dfd565b600080866001600160a01b031685876040516109009190610b7e565b60006040518083038185875af1925050503d806000811461093d576040519150601f19603f3d011682016040523d82523d6000602084013e610942565b606091505b5091509150610952828286610963565b979650505050505050565b3b151590565b60608315610972575081610896565b8251156109825782518084602001fd5b8160405162461bcd60e51b815260040161048c9190610c9b565b60008083601f8401126109ad578182fd5b50813567ffffffffffffffff8111156109c4578182fd5b60208301915083602080830285010111156109de57600080fd5b9250929050565b803567ffffffffffffffff8116811461078957600080fd5b600060208284031215610a0e578081fd5b813561089681610eda565b600060208284031215610a2a578081fd5b815161089681610eda565b600080600080600080600080600060e08a8c031215610a52578485fd5b893567ffffffffffffffff80821115610a69578687fd5b610a758d838e0161099c565b909b50995060208c01359150610a8a82610eda565b90975060408b01359080821115610a9f578687fd5b50610aac8c828d0161099c565b9097509550610abf905060608b016109e5565b9350610acd60808b016109e5565b925060a08a0135610add81610ef2565b8092505060c08a013590509295985092959850929598565b600060208284031215610b06578081fd5b815161089681610ef2565b600060208284031215610b22578081fd5b5035919050565b6001600160a01b03169052565b81835260006001600160fb1b03831115610b4e578081fd5b6020830280836020870137939093016020019283525090919050565b15159052565b67ffffffffffffffff169052565b60008251610b90818460208701610e87565b9190910192915050565b6001600160a01b0391909116815260200190565b6001600160a01b0392831681529116602082015260400190565b6001600160a01b039384168152919092166020820152604081019190915260600190565b60e0808252810189905260008a6101008301825b8c811015610c30578235610c1381610eda565b6001600160a01b0316825260209283019290910190600101610c00565b50610c3e602085018c610b29565b8381036040850152610c51818a8c610b36565b92505050610c626060830187610b70565b610c6f6080830186610b70565b610c7c60a0830185610b6a565b8260c08301529a9950505050505050505050565b901515815260200190565b6000602082528251806020840152610cba816040850160208701610e87565b601f01601f19169190910160400192915050565b60208082526026908201527f4f776e61626c653a206e6577206f776e657220697320746865207a65726f206160408201526564647265737360d01b606082015260800190565b602080825260059082015264535246303160d81b604082015260600190565b60208082526026908201527f416464726573733a20696e73756666696369656e742062616c616e636520666f6040820152651c8818d85b1b60d21b606082015260800190565b60208082526005908201526429a923181960d91b604082015260600190565b602080825260169082015275115490cc4c4d8dce8818dc99585d194819985a5b195960521b604082015260600190565b6020808252818101527f4f776e61626c653a2063616c6c6572206973206e6f7420746865206f776e6572604082015260600190565b6020808252601d908201527f416464726573733a2063616c6c20746f206e6f6e2d636f6e7472616374000000604082015260600190565b6020808252602a908201527f5361666545524332303a204552433230206f7065726174696f6e20646964206e6040820152691bdd081cdd58d8d9595960b21b606082015260800190565b90815260200190565b60005b83811015610ea2578181015183820152602001610e8a565b838111156107e65750506000910152565b6000600019821415610ed357634e487b7160e01b81526011600452602481fd5b5060010190565b6001600160a01b0381168114610eef57600080fd5b50565b8015158114610eef57600080fdfea2646970667358221220cd0193888a114b41f8ef63c4a4a43d420e5be8fb428621f0f0f09ac4006251b464736f6c63430008000033",
  "linkReferences": {},
  "deployedLinkReferences": {}
}