{
  "_format": "hh-sol-artifact-1",
  "contractName": "ERC20StakingRewardsDistribution",
  "sourceName": "contracts/ERC20StakingRewardsDistribution.sol",
  "abi": [
    {
      "anonymous": false,
      "inputs": [],
      "name": "Canceled",
      "type": "event"
    },
    {
      "anonymous": false,
      "inputs": [
        {
          "indexed": true,
          "internalType": "address",
          "name": "claimer",
          "type": "address"
        },
        {
          "indexed": false,
          "internalType": "uint256[]",
          "name": "amounts",
          "type": "uint256[]"
        }
      ],
      "name": "Claimed",
      "type": "event"
    },
    {
      "anonymous": false,
      "inputs": [
        {
          "indexed": false,
          "internalType": "address[]",
          "name": "rewardsTokenAddresses",
          "type": "address[]"
        },
        {
          "indexed": false,
          "internalType": "address",
          "name": "stakableTokenAddress",
          "type": "address"
        },
        {
          "indexed": false,
          "internalType": "uint256[]",
          "name": "rewardsAmounts",
          "type": "uint256[]"
        },
        {
          "indexed": false,
          "internalType": "uint64",
          "name": "startingTimestamp",
          "type": "uint64"
        },
        {
          "indexed": false,
          "internalType": "uint64",
          "name": "endingTimestamp",
          "type": "uint64"
        },
        {
          "indexed": false,
          "internalType": "bool",
          "name": "locked",
          "type": "bool"
        },
        {
          "indexed": false,
          "internalType": "uint256",
          "name": "stakingCap",
          "type": "uint256"
        }
      ],
      "name": "Initialized",
      "type": "event"
    },
    {
      "anonymous": false,
      "inputs": [
        {
          "indexed": true,
          "internalType": "address",
          "name": "previousOwner",
          "type": "address"
        },
        {
          "indexed": true,
          "internalType": "address",
          "name": "newOwner",
          "type": "address"
        }
      ],
      "name": "OwnershipTransferred",
      "type": "event"
    },
    {
      "anonymous": false,
      "inputs": [
        {
          "indexed": false,
          "internalType": "uint256[]",
          "name": "amounts",
          "type": "uint256[]"
        }
      ],
      "name": "Recovered",
      "type": "event"
    },
    {
      "anonymous": false,
      "inputs": [
        {
          "indexed": true,
          "internalType": "address",
          "name": "staker",
          "type": "address"
        },
        {
          "indexed": false,
          "internalType": "uint256",
          "name": "amount",
          "type": "uint256"
        }
      ],
      "name": "Staked",
      "type": "event"
    },
    {
      "anonymous": false,
      "inputs": [
        {
          "indexed": false,
          "internalType": "uint256[]",
          "name": "amounts",
          "type": "uint256[]"
        }
      ],
      "name": "UpdatedRewards",
      "type": "event"
    },
    {
      "anonymous": false,
      "inputs": [
        {
          "indexed": true,
          "internalType": "address",
          "name": "withdrawer",
          "type": "address"
        },
        {
          "indexed": false,
          "internalType": "uint256",
          "name": "amount",
          "type": "uint256"
        }
      ],
      "name": "Withdrawn",
      "type": "event"
    },
    {
      "inputs": [],
      "name": "MULTIPLIER",
      "outputs": [
        {
          "internalType": "uint256",
          "name": "",
          "type": "uint256"
        }
      ],
      "stateMutability": "view",
      "type": "function"
    },
    {
      "inputs": [
        {
          "internalType": "address",
          "name": "_token",
          "type": "address"
        },
        {
          "internalType": "uint256",
          "name": "_amount",
          "type": "uint256"
        }
      ],
      "name": "addRewards",
      "outputs": [],
      "stateMutability": "nonpayable",
      "type": "function"
    },
    {
      "inputs": [],
      "name": "cancel",
      "outputs": [],
      "stateMutability": "nonpayable",
      "type": "function"
    },
    {
      "inputs": [],
      "name": "canceled",
      "outputs": [
        {
          "internalType": "bool",
          "name": "",
          "type": "bool"
        }
      ],
      "stateMutability": "view",
      "type": "function"
    },
    {
      "inputs": [
        {
          "internalType": "uint256[]",
          "name": "_amounts",
          "type": "uint256[]"
        },
        {
          "internalType": "address",
          "name": "_recipient",
          "type": "address"
        }
      ],
      "name": "claim",
      "outputs": [],
      "stateMutability": "nonpayable",
      "type": "function"
    },
    {
      "inputs": [
        {
          "internalType": "address",
          "name": "_recipient",
          "type": "address"
        }
      ],
      "name": "claimAll",
      "outputs": [],
      "stateMutability": "nonpayable",
      "type": "function"
    },
    {
      "inputs": [
        {
          "internalType": "address",
          "name": "_account",
          "type": "address"
        }
      ],
      "name": "claimableRewards",
      "outputs": [
        {
          "internalType": "uint256[]",
          "name": "",
          "type": "uint256[]"
        }
      ],
      "stateMutability": "view",
      "type": "function"
    },
    {
      "inputs": [
        {
          "internalType": "address",
          "name": "_staker",
          "type": "address"
        }
      ],
      "name": "earnedRewardsOf",
      "outputs": [
        {
          "internalType": "uint256[]",
          "name": "",
          "type": "uint256[]"
        }
      ],
      "stateMutability": "view",
      "type": "function"
    },
    {
      "inputs": [],
      "name": "endingTimestamp",
      "outputs": [
        {
          "internalType": "uint64",
          "name": "",
          "type": "uint64"
        }
      ],
      "stateMutability": "view",
      "type": "function"
    },
    {
      "inputs": [
        {
          "internalType": "address",
          "name": "_recipient",
          "type": "address"
        }
      ],
      "name": "exit",
      "outputs": [],
      "stateMutability": "nonpayable",
      "type": "function"
    },
    {
      "inputs": [],
      "name": "factory",
      "outputs": [
        {
          "internalType": "address",
          "name": "",
          "type": "address"
        }
      ],
      "stateMutability": "view",
      "type": "function"
    },
    {
      "inputs": [
        {
          "internalType": "address",
          "name": "_claimer",
          "type": "address"
        }
      ],
      "name": "getClaimedRewards",
      "outputs": [
        {
          "internalType": "uint256[]",
          "name": "",
          "type": "uint256[]"
        }
      ],
      "stateMutability": "view",
      "type": "function"
    },
    {
      "inputs": [],
      "name": "getRewardTokens",
      "outputs": [
        {
          "internalType": "address[]",
          "name": "",
          "type": "address[]"
        }
      ],
      "stateMutability": "view",
      "type": "function"
    },
    {
      "inputs": [
        {
          "internalType": "address[]",
          "name": "_rewardTokenAddresses",
          "type": "address[]"
        },
        {
          "internalType": "address",
          "name": "_stakableTokenAddress",
          "type": "address"
        },
        {
          "internalType": "uint256[]",
          "name": "_rewardAmounts",
          "type": "uint256[]"
        },
        {
          "internalType": "uint64",
          "name": "_startingTimestamp",
          "type": "uint64"
        },
        {
          "internalType": "uint64",
          "name": "_endingTimestamp",
          "type": "uint64"
        },
        {
          "internalType": "bool",
          "name": "_locked",
          "type": "bool"
        },
        {
          "internalType": "uint256",
          "name": "_stakingCap",
          "type": "uint256"
        }
      ],
      "name": "initialize",
      "outputs": [],
      "stateMutability": "nonpayable",
      "type": "function"
    },
    {
      "inputs": [],
      "name": "initialized",
      "outputs": [
        {
          "internalType": "bool",
          "name": "",
          "type": "bool"
        }
      ],
      "stateMutability": "view",
      "type": "function"
    },
    {
      "inputs": [],
      "name": "lastConsolidationTimestamp",
      "outputs": [
        {
          "internalType": "uint64",
          "name": "",
          "type": "uint64"
        }
      ],
      "stateMutability": "view",
      "type": "function"
    },
    {
      "inputs": [],
      "name": "locked",
      "outputs": [
        {
          "internalType": "bool",
          "name": "",
          "type": "bool"
        }
      ],
      "stateMutability": "view",
      "type": "function"
    },
    {
      "inputs": [],
      "name": "owner",
      "outputs": [
        {
          "internalType": "address",
          "name": "",
          "type": "address"
        }
      ],
      "stateMutability": "view",
      "type": "function"
    },
    {
      "inputs": [],
      "name": "recoverUnassignedRewards",
      "outputs": [],
      "stateMutability": "nonpayable",
      "type": "function"
    },
    {
      "inputs": [
        {
          "internalType": "address",
          "name": "_rewardToken",
          "type": "address"
        }
      ],
      "name": "recoverableUnassignedReward",
      "outputs": [
        {
          "internalType": "uint256",
          "name": "",
          "type": "uint256"
        }
      ],
      "stateMutability": "view",
      "type": "function"
    },
    {
      "inputs": [],
      "name": "renounceOwnership",
      "outputs": [],
      "stateMutability": "nonpayable",
      "type": "function"
    },
    {
      "inputs": [
        {
          "internalType": "address",
          "name": "_rewardToken",
          "type": "address"
        }
      ],
      "name": "rewardAmount",
      "outputs": [
        {
          "internalType": "uint256",
          "name": "",
          "type": "uint256"
        }
      ],
      "stateMutability": "view",
      "type": "function"
    },
    {
      "inputs": [
        {
          "internalType": "uint256",
          "name": "",
          "type": "uint256"
        }
      ],
      "name": "rewards",
      "outputs": [
        {
          "internalType": "address",
          "name": "token",
          "type": "address"
        },
        {
          "internalType": "uint256",
          "name": "amount",
          "type": "uint256"
        },
        {
          "internalType": "uint256",
          "name": "unassigned",
          "type": "uint256"
        },
        {
          "internalType": "uint256",
          "name": "perStakedToken",
          "type": "uint256"
        }
      ],
      "stateMutability": "view",
      "type": "function"
    },
    {
      "inputs": [],
      "name": "secondsDuration",
      "outputs": [
        {
          "internalType": "uint64",
          "name": "",
          "type": "uint64"
        }
      ],
      "stateMutability": "view",
      "type": "function"
    },
    {
      "inputs": [],
      "name": "stakableToken",
      "outputs": [
        {
          "internalType": "contract IERC20",
          "name": "",
          "type": "address"
        }
      ],
      "stateMutability": "view",
      "type": "function"
    },
    {
      "inputs": [
        {
          "internalType": "uint256",
          "name": "_amount",
          "type": "uint256"
        }
      ],
      "name": "stake",
      "outputs": [],
      "stateMutability": "nonpayable",
      "type": "function"
    },
    {
      "inputs": [
        {
          "internalType": "address",
          "name": "_staker",
          "type": "address"
        }
      ],
      "name": "stakedTokensOf",
      "outputs": [
        {
          "internalType": "uint256",
          "name": "",
          "type": "uint256"
        }
      ],
      "stateMutability": "view",
      "type": "function"
    },
    {
      "inputs": [
        {
          "internalType": "address",
          "name": "",
          "type": "address"
        }
      ],
      "name": "stakers",
      "outputs": [
        {
          "internalType": "uint256",
          "name": "stake",
          "type": "uint256"
        }
      ],
      "stateMutability": "view",
      "type": "function"
    },
    {
      "inputs": [],
      "name": "stakingCap",
      "outputs": [
        {
          "internalType": "uint256",
          "name": "",
          "type": "uint256"
        }
      ],
      "stateMutability": "view",
      "type": "function"
    },
    {
      "inputs": [],
      "name": "startingTimestamp",
      "outputs": [
        {
          "internalType": "uint64",
          "name": "",
          "type": "uint64"
        }
      ],
      "stateMutability": "view",
      "type": "function"
    },
    {
      "inputs": [],
      "name": "totalStakedTokensAmount",
      "outputs": [
        {
          "internalType": "uint256",
          "name": "",
          "type": "uint256"
        }
      ],
      "stateMutability": "view",
      "type": "function"
    },
    {
      "inputs": [
        {
          "internalType": "address",
          "name": "_newOwner",
          "type": "address"
        }
      ],
      "name": "transferOwnership",
      "outputs": [],
      "stateMutability": "nonpayable",
      "type": "function"
    },
    {
      "inputs": [
        {
          "internalType": "uint256",
          "name": "_amount",
          "type": "uint256"
        }
      ],
      "name": "withdraw",
      "outputs": [],
      "stateMutability": "nonpayable",
      "type": "function"
    }
  ],
  "bytecode": "0x608060405234801561001057600080fd5b50612f4f806100206000396000f3fe608060405234801561001057600080fd5b50600436106101fb5760003560e01c80639168ae721161011a578063c10de300116100ad578063dc01f60d1161007c578063dc01f60d146103c8578063e644067d146103db578063ea8a1af0146103e3578063f2fde38b146103eb578063f301af42146103fe576101fb565b8063c10de3001461039b578063c45a0155146103a3578063c4f59f9b146103ab578063cf309012146103c0576101fb565b8063ab08d4fc116100e9578063ab08d4fc1461035a578063b41fa9791461036d578063b42652e914610375578063b9e35db014610388576101fb565b80639168ae72146103015780639322776e14610314578063a694fc3a14610334578063a9fc507b14610347576101fb565b80635e5294b71161019257806377329f351161016157806377329f35146102cb57806388786272146102de5780638c574b48146102e65780638da5cb5b146102f9576101fb565b80635e5294b7146102935780635fa35023146102a8578063645a8a56146102b0578063715018a6146102c3576101fb565b80632e1a7d4d116101ce5780632e1a7d4d1461025d5780633b34ee50146102705780633f9942ff1461028357806344c370d31461028b576101fb565b8063059f8b1614610200578063158ef93e1461021e5780631c96c3fb1461023357806323a26e3614610248575b600080fd5b610208610421565b6040516102159190612dc1565b60405180910390f35b610226610429565b60405161021591906129f3565b61023b610439565b6040516102159190612853565b61025b61025636600461261b565b610448565b005b61025b61026b3660046127c0565b610819565b61020861027e3660046125d8565b610998565b610226610b92565b610208610ba2565b61029b610ba8565b6040516102159190612dca565b61029b610bbe565b6102086102be3660046125d8565b610bd4565b61025b610c55565b61025b6102d93660046125d8565b610cbe565b61029b610edd565b61025b6102f43660046126d9565b610eec565b61023b611182565b61020861030f3660046125d8565b611191565b6103276103223660046125d8565b6111a3565b60405161021591906129bb565b61025b6103423660046127c0565b6112b9565b61025b6103553660046125f2565b6114c3565b6102086103683660046125d8565b6116fa565b610208611715565b61025b6103833660046125d8565b61171b565b6103276103963660046125d8565b611796565b61029b6118a7565b61023b6118bd565b6103b36118cc565b604051610215919061296e565b6102266119c2565b6103276103d63660046125d8565b6119d2565b61025b611c49565b61025b611e70565b61025b6103f93660046125d8565b61201f565b61041161040c3660046127c0565b6120cb565b60405161021594939291906128a4565b600160401b81565b600554600160b01b900460ff1681565b6003546001600160a01b031681565b600554600160b01b900460ff161561047b5760405162461bcd60e51b815260040161047290612bad565b60405180910390fd5b836001600160401b0316836001600160401b0316116104ac5760405162461bcd60e51b815260040161047290612a8e565b8785146104cb5760405162461bcd60e51b815260040161047290612d45565b6104d58484612e4c565b600260106101000a8154816001600160401b0302191690836001600160401b0316021790555060005b63ffffffff81168911156106ea5760008a8a8363ffffffff1681811061053457634e487b7160e01b600052603260045260246000fd5b905060200201602081019061054991906125d8565b9050600088888463ffffffff1681811061057357634e487b7160e01b600052603260045260246000fd5b60200291909101359150506001600160a01b0382166105a45760405162461bcd60e51b815260040161047290612cbd565b6040516370a0823160e01b8152829082906001600160a01b038316906370a08231906105d4903090600401612853565b60206040518083038186803b1580156105ec57600080fd5b505afa158015610600573d6000803e3d6000fd5b505050506040513d601f19601f8201168201806040525081019061062491906127d8565b146106415760405162461bcd60e51b815260040161047290612acc565b60006040518060800160405280856001600160a01b03168152602001848152602001600160401b856106739190612e16565b81526000602091820181905283546001808201865594825290829020835160049092020180546001600160a01b0319166001600160a01b0390921691909117815590820151928101929092556040810151600283015560600151600390910155508291506106e2905081612ebb565b9150506104fe565b506001600160a01b0387166107115760405162461bcd60e51b815260040161047290612beb565b600380546001600160a01b03199081166001600160a01b038a161790915560048054339083168117909155600580546002805467ffffffffffffffff19166001600160401b038a81169182176fffffffffffffffff00000000000000001916600160401b918b1691909102176001600160c01b0316600160c01b919091021790556007859055600160b01b931690911760ff60a01b1916600160a01b851515021760ff60b01b19169190911760ff60a81b191690556040517f2c1fa4f0e3f1c67636ee0b3665bf3a04407a2c1332d4e3e99f941ee2b0b9daf490610806908b908b908b908b908b908b908b908b908b906128ca565b60405180910390a1505050505050505050565b600554600160b01b900460ff16801561083c5750600554600160a81b900460ff16155b801561085357506002546001600160401b03164210155b61086f5760405162461bcd60e51b815260040161047290612c7f565b6000811161088f5760405162461bcd60e51b815260040161047290612b31565b600554600160a01b900460ff16156108d257600254600160401b90046001600160401b031642116108d25760405162461bcd60e51b815260040161047290612d83565b6108da61210f565b336000908152600160205260409020805482111561090a5760405162461bcd60e51b815260040161047290612c9e565b8181600001600082825461091e9190612e35565b9250508190555081600660008282546109379190612e35565b9091555050600354610953906001600160a01b03163384612323565b336001600160a01b03167f7084f5476618d8e60b11ef0d7d3f06914655adb8793e28ff7f018d4c76d505d58360405161098c9190612dc1565b60405180910390a25050565b600254600090600160401b90046001600160401b03164210156109cd5760405162461bcd60e51b815260040161047290612d83565b6002546000906109ee904290600160401b90046001600160401b031661237e565b600254909150600090610a1190600160c01b90046001600160401b031683612e4c565b6002546001600160401b039182169250600091610a4091600160c01b8104821691600160401b90910416612e4c565b6001600160401b0316905060005b600054811015610b84576000808281548110610a7a57634e487b7160e01b600052603260045260246000fd5b600091825260209182902060408051608081018252600490930290910180546001600160a01b03908116808552600183015495850195909552600282015492840192909252600301546060830152909250881614610ad85750610b72565b600060065484610ae89190612e16565b1115610b5257600083600654836040015187610b049190612e16565b610b0e9190612df6565b610b189190612df6565b90508082606001818151610b2c9190612dde565b905250600654610b3c9082612e16565b82604001818151610b4d9190612e35565b905250505b600160401b8160400151610b669190612df6565b95505050505050610b8d565b80610b7c81612ea0565b915050610a4e565b50600093505050505b919050565b600554600160a81b900460ff1681565b60075481565b600254600160401b90046001600160401b031681565b600254600160801b90046001600160401b031681565b6000805b600054811015610c4c576000808281548110610c0457634e487b7160e01b600052603260045260246000fd5b6000918252602090912060049091020180549091506001600160a01b0385811691161415610c3957600101549150610b8d9050565b5080610c4481612ea0565b915050610bd8565b50600092915050565b6004546001600160a01b03163314610c7f5760405162461bcd60e51b815260040161047290612d64565b600480546001600160a01b031916905560405160009081907f8be0079c531659141344cd1fd0a4f28419497f9722a3daafe3b4186f6b6457e0908290a3565b600554600160b01b900460ff168015610ce15750600554600160a81b900460ff16155b8015610cf857506002546001600160401b03164210155b610d145760405162461bcd60e51b815260040161047290612c7f565b610d1c61210f565b33600090815260016020526040812081549091906001600160401b03811115610d5557634e487b7160e01b600052604160045260246000fd5b604051908082528060200260200182016040528015610d7e578160200160208202803683370190505b5090506000805b600054811015610e78576000808281548110610db157634e487b7160e01b600052603260045260246000fd5b60009182526020808320600490920290910180546001600160a01b031683526001808901909252604083206002810154928101549194509291610df391612e35565b905080610e0257505050610e66565b6001945080826002016000828254610e1a9190612dde565b90915550508254610e35906001600160a01b03168983612323565b80868581518110610e5657634e487b7160e01b600052603260045260246000fd5b6020026020010181815250505050505b80610e7081612ea0565b915050610d85565b5080610e965760405162461bcd60e51b815260040161047290612da2565b336001600160a01b03167f28ee566bdecaf975c0979f4d09fecf91a9009ffe78523aef053a678134137b8b83604051610ecf91906129bb565b60405180910390a250505050565b6002546001600160401b031681565b600554600160b01b900460ff168015610f0f5750600554600160a81b900460ff16155b8015610f2657506002546001600160401b03164210155b610f425760405162461bcd60e51b815260040161047290612c7f565b600054825114610f645760405162461bcd60e51b815260040161047290612d26565b610f6c61210f565b33600090815260016020526040812081549091906001600160401b03811115610fa557634e487b7160e01b600052604160045260246000fd5b604051908082528060200260200182016040528015610fce578160200160208202803683370190505b5090506000805b60005481101561111c57600080828154811061100157634e487b7160e01b600052603260045260246000fd5b60009182526020808320600490920290910180546001600160a01b03168352600180890190925260408320600281015492810154919450929161104391612e35565b9050600089858151811061106757634e487b7160e01b600052603260045260246000fd5b60200260200101519050808210156110915760405162461bcd60e51b815260040161047290612aad565b8515801561109f5750600081115b156110a957600195505b808360020160008282546110bd9190612dde565b909155505083546110d8906001600160a01b03168a83612323565b808786815181106110f957634e487b7160e01b600052603260045260246000fd5b60200260200101818152505050505050808061111490612ea0565b915050610fd5565b508061113a5760405162461bcd60e51b815260040161047290612b8e565b336001600160a01b03167f28ee566bdecaf975c0979f4d09fecf91a9009ffe78523aef053a678134137b8b8360405161117391906129bb565b60405180910390a25050505050565b6004546001600160a01b031681565b60016020526000908152604090205481565b6001600160a01b03811660009081526001602052604081208154606092906001600160401b038111156111e657634e487b7160e01b600052604160045260246000fd5b60405190808252806020026020018201604052801561120f578160200160208202803683370190505b50905060005b6000548110156112b15782600101600080838154811061124557634e487b7160e01b600052603260045260246000fd5b600091825260208083206004909202909101546001600160a01b03168352820192909252604001902060010154825183908390811061129457634e487b7160e01b600052603260045260246000fd5b6020908102919091010152806112a981612ea0565b915050611215565b509392505050565b600554600160b01b900460ff1680156112dc5750600554600160a81b900460ff16155b80156112f357506002546001600160401b03164210155b80156113115750600254600160401b90046001600160401b03164211155b61132d5760405162461bcd60e51b815260040161047290612c60565b600560009054906101000a90046001600160a01b03166001600160a01b031663bbb781cc6040518163ffffffff1660e01b8152600401602060405180830381600087803b15801561137d57600080fd5b505af1158015611391573d6000803e3d6000fd5b505050506040513d601f19601f820116820180604052508101906113b591906127a4565b156113d25760405162461bcd60e51b815260040161047290612bcc565b600081116113f25760405162461bcd60e51b815260040161047290612b50565b60075415611429576007548160065461140b9190612dde565b11156114295760405162461bcd60e51b815260040161047290612b6f565b61143161210f565b336000908152600160205260408120805490918391839190611454908490612dde565b92505081905550816006600082825461146d9190612dde565b909155505060035461148a906001600160a01b0316333085612396565b336001600160a01b03167f9e71bc8eea02a63969f509818f2dafb9254532904319f9dbda79b67bd34a5f3d8360405161098c9190612dc1565b6114cb61210f565b600080546001600160401b038111156114f457634e487b7160e01b600052604160045260246000fd5b60405190808252806020026020018201604052801561151d578160200160208202803683370190505b50905060005b60005463ffffffff821610156116bd576000808263ffffffff168154811061155b57634e487b7160e01b600052603260045260246000fd5b60009182526020909120600490910201546001600160a01b0390811691508516811415611640576115976001600160a01b038616333087612396565b8360008363ffffffff16815481106115bf57634e487b7160e01b600052603260045260246000fd5b906000526020600020906004020160010160008282546115df9190612dde565b909155506115f39050600160401b85612e16565b60008363ffffffff168154811061161a57634e487b7160e01b600052603260045260246000fd5b9060005260206000209060040201600201600082825461163a9190612dde565b90915550505b60008263ffffffff168154811061166757634e487b7160e01b600052603260045260246000fd5b906000526020600020906004020160010154838363ffffffff168151811061169f57634e487b7160e01b600052603260045260246000fd5b602090810291909101015250806116b581612ebb565b915050611523565b507f435783188b65ac75875f7b455c137ab431de3ce62e0842b34abb1874d690a726816040516116ed91906129bb565b60405180910390a1505050565b6001600160a01b031660009081526001602052604090205490565b60065481565b600554600160b01b900460ff16801561173e5750600554600160a81b900460ff16155b801561175557506002546001600160401b03164210155b6117715760405162461bcd60e51b815260040161047290612c7f565b61177a81610cbe565b3360009081526001602052604090205461179390610819565b50565b6001600160a01b03811660009081526001602052604081208154606092906001600160401b038111156117d957634e487b7160e01b600052604160045260246000fd5b604051908082528060200260200182016040528015611802578160200160208202803683370190505b50905060005b6000548110156112b157600080828154811061183457634e487b7160e01b600052603260045260246000fd5b60009182526020808320600490920290910180546001600160a01b031683526001870190915260409091206002015484519192509084908490811061188957634e487b7160e01b600052603260045260246000fd5b6020908102919091010152508061189f81612ea0565b915050611808565b600254600160c01b90046001600160401b031681565b6005546001600160a01b031681565b60008054606091906001600160401b038111156118f957634e487b7160e01b600052604160045260246000fd5b604051908082528060200260200182016040528015611922578160200160208202803683370190505b50905060005b6000548110156119bc576000818154811061195357634e487b7160e01b600052603260045260246000fd5b600091825260209091206004909102015482516001600160a01b039091169083908390811061199257634e487b7160e01b600052603260045260246000fd5b6001600160a01b0390921660209283029190910190910152806119b481612ea0565b915050611928565b50905090565b600554600160a01b900460ff1681565b60008054606091906001600160401b038111156119ff57634e487b7160e01b600052604160045260246000fd5b604051908082528060200260200182016040528015611a28578160200160208202803683370190505b50600554909150600160b01b900460ff16611a44579050610b8d565b6002546001600160401b0316421015611a5e579050610b8d565b600254600090611a7f904290600160401b90046001600160401b031661237e565b600254909150600090611aa290600160c01b90046001600160401b031683612e4c565b6002546001600160401b039182169250600091611ad191600160c01b8104821691600160401b90910416612e4c565b6001600160a01b03871660009081526001602052604081206001600160401b039290921692505b600054811015611c3d576000808281548110611b2457634e487b7160e01b600052603260045260246000fd5b60009182526020808320600490920290910180546001600160a01b031683526001808701909252604090922060028101549181015492935091611b679190612e35565b888481518110611b8757634e487b7160e01b600052603260045260246000fd5b60209081029190910101528354611b9f575050611c2b565b84611bab575050611c2b565b84600654600160401b8460020154898860000154611bc99190612e16565b611bd39190612e16565b611bdd9190612df6565b611be79190612df6565b611bf19190612df6565b888481518110611c1157634e487b7160e01b600052603260045260246000fd5b60200260200101818151611c259190612dde565b90525050505b80611c3581612ea0565b915050611af8565b50939695505050505050565b600554600160b01b900460ff168015611c6c5750600554600160a81b900460ff16155b8015611c8357506002546001600160401b03164210155b611c9f5760405162461bcd60e51b815260040161047290612c7f565b611ca761210f565b600080546001600160401b03811115611cd057634e487b7160e01b600052604160045260246000fd5b604051908082528060200260200182016040528015611cf9578160200160208202803683370190505b50600254909150600160401b90046001600160401b0316421015611d2f5760405162461bcd60e51b815260040161047290612d83565b6000805b600054811015611e17576000808281548110611d5f57634e487b7160e01b600052603260045260246000fd5b90600052602060002090600402019050806002015460001415611d825750611e05565b60019250600160401b8160020154611d9a9190612df6565b848381518110611dba57634e487b7160e01b600052603260045260246000fd5b60209081029190910101526004546002820154611dfc916001600160a01b031690611dea90600160401b90612df6565b83546001600160a01b03169190612323565b60006002909101555b80611e0f81612ea0565b915050611d33565b5080611e355760405162461bcd60e51b815260040161047290612a50565b7ff904fafa600a7e4e8039f3a5497d1b6016772e3060f87d3e40f911b315f00bd182604051611e6491906129bb565b60405180910390a15050565b6004546001600160a01b03163314611e9a5760405162461bcd60e51b815260040161047290612d64565b600554600160b01b900460ff168015611ebd5750600554600160a81b900460ff16155b611ed95760405162461bcd60e51b815260040161047290612a31565b6002546001600160401b03164210611f035760405162461bcd60e51b815260040161047290612c0a565b60005b600054811015611fe0576000808281548110611f3257634e487b7160e01b600052603260045260246000fd5b600091825260209091206004805492810290910180546040516370a0823160e01b8152919450611fcd936001600160a01b03908116939116916370a0823191611f7d91309101612853565b60206040518083038186803b158015611f9557600080fd5b505afa158015611fa9573d6000803e3d6000fd5b505050506040513d601f19601f82011682018060405250810190611dea91906127d8565b5080611fd881612ea0565b915050611f06565b506005805460ff60a81b1916600160a81b1790556040517f1afb0ae590df277bcb3a37f88612725bf1f7df4755792b1548a7efe77985ff7790600090a1565b6004546001600160a01b031633146120495760405162461bcd60e51b815260040161047290612d64565b6001600160a01b03811661206f5760405162461bcd60e51b815260040161047290612a6f565b6004546040516001600160a01b038084169216907f8be0079c531659141344cd1fd0a4f28419497f9722a3daafe3b4186f6b6457e090600090a3600480546001600160a01b0319166001600160a01b0392909216919091179055565b600081815481106120db57600080fd5b600091825260209091206004909102018054600182015460028301546003909301546001600160a01b039092169350919084565b600254600090612130904290600160401b90046001600160401b031661237e565b6002549091506001600160401b03600160c01b909104811690821610156121575750612321565b60025460009061217790600160c01b90046001600160401b031683612e4c565b6002546001600160401b0391821692506000916121a691600160c01b8104821691600160401b90910416612e4c565b336000908152600160205260408120600280546001600160401b03888116600160c01b026001600160c01b03909216919091179091559290921692505b60005481101561231b57600080828154811061220f57634e487b7160e01b600052603260045260246000fd5b60009182526020808320600490920290910180546001600160a01b031683526001860190915260408220600654919350919061224b9087612e16565b11156122bd576000856006548460020154896122679190612e16565b6122719190612df6565b61227b9190612df6565b9050808360030160008282546122919190612dde565b90915550506006546122a39082612e16565b8360020160008282546122b69190612e35565b9091555050505b80546003830154600160401b916122d391612e35565b85546122df9190612e16565b6122e99190612df6565b8160010160008282546122fc9190612dde565b909155505060039091015490558061231381612ea0565b9150506121e3565b50505050505b565b6123798363a9059cbb60e01b848460405160240161234292919061288b565b60408051601f198184030181529190526020810180516001600160e01b03166001600160e01b0319909316929092179091526123bd565b505050565b600081831061238d578161238f565b825b9392505050565b6123b7846323b872dd60e01b85858560405160240161234293929190612867565b50505050565b6000612412826040518060400160405280602081526020017f5361666545524332303a206c6f772d6c6576656c2063616c6c206661696c6564815250856001600160a01b031661244c9092919063ffffffff16565b805190915015612379578080602001905181019061243091906127a4565b6123795760405162461bcd60e51b815260040161047290612cdc565b606061245b8484600085612463565b949350505050565b6060824710156124855760405162461bcd60e51b815260040161047290612aeb565b61248e85612523565b6124aa5760405162461bcd60e51b815260040161047290612c29565b600080866001600160a01b031685876040516124c69190612837565b60006040518083038185875af1925050503d8060008114612503576040519150601f19603f3d011682016040523d82523d6000602084013e612508565b606091505b5091509150612518828286612529565b979650505050505050565b3b151590565b6060831561253857508161238f565b8251156125485782518084602001fd5b8160405162461bcd60e51b815260040161047291906129fe565b80356001600160a01b0381168114610b8d57600080fd5b60008083601f84011261258a578081fd5b5081356001600160401b038111156125a0578182fd5b60208301915083602080830285010111156125ba57600080fd5b9250929050565b80356001600160401b0381168114610b8d57600080fd5b6000602082840312156125e9578081fd5b61238f82612562565b60008060408385031215612604578081fd5b61260d83612562565b946020939093013593505050565b600080600080600080600080600060e08a8c031215612638578485fd5b89356001600160401b038082111561264e578687fd5b61265a8d838e01612579565b909b50995089915061266e60208d01612562565b985060408c0135915080821115612683578687fd5b506126908c828d01612579565b90975095506126a3905060608b016125c1565b93506126b160808b016125c1565b925060a08a01356126c181612f0b565b8092505060c08a013590509295985092959850929598565b600080604083850312156126eb578182fd5b82356001600160401b0380821115612701578384fd5b818501915085601f830112612714578384fd5b813560208282111561272857612728612ef5565b8082026040518282820101818110868211171561274757612747612ef5565b604052838152828101945085830182870184018b1015612765578889fd5b8896505b84871015612787578035865260019690960195948301948301612769565b5096506127979050878201612562565b9450505050509250929050565b6000602082840312156127b5578081fd5b815161238f81612f0b565b6000602082840312156127d1578081fd5b5035919050565b6000602082840312156127e9578081fd5b5051919050565b81835260006001600160fb1b03831115612808578081fd5b6020830280836020870137939093016020019283525090919050565b15159052565b6001600160401b03169052565b60008251612849818460208701612e74565b9190910192915050565b6001600160a01b0391909116815260200190565b6001600160a01b039384168152919092166020820152604081019190915260600190565b6001600160a01b03929092168252602082015260400190565b6001600160a01b0394909416845260208401929092526040830152606082015260800190565b60e0808252810189905260008a6101008301825b8c81101561290c576001600160a01b036128f784612562565b168252602092830192909101906001016128de565b506001600160a01b038b166020850152838103604085015261292f818a8c6127f0565b92505050612940606083018761282a565b61294d608083018661282a565b61295a60a0830185612824565b8260c08301529a9950505050505050505050565b6020808252825182820181905260009190848201906040850190845b818110156129af5783516001600160a01b03168352928401929184019160010161298a565b50909695505050505050565b6020808252825182820181905260009190848201906040850190845b818110156129af578351835292840192918401916001016129d7565b901515815260200190565b6000602082528251806020840152612a1d816040850160208701612e74565b601f01601f19169190910160400192915050565b602080825260059082015264535244313960d81b604082015260600190565b60208082526005908201526429a922191960d91b604082015260600190565b60208082526005908201526429a922189b60d91b604082015260600190565b60208082526005908201526429a922181960d91b604082015260600190565b602080825260059082015264535244313560d81b604082015260600190565b60208082526005908201526429a922181b60d91b604082015260600190565b60208082526026908201527f416464726573733a20696e73756666696369656e742062616c616e636520666f6040820152651c8818d85b1b60d21b606082015260800190565b602080825260059082015264535244313160d81b604082015260600190565b602080825260059082015264535244303960d81b604082015260600190565b602080825260059082015264053524431360dc1b604082015260600190565b60208082526005908201526414d4910c8d60da1b604082015260600190565b6020808252600590820152640a6a48862760db1b604082015260600190565b602080825260059082015264535244323560d81b604082015260600190565b602080825260059082015264535244303760d81b604082015260600190565b6020808252600590820152640a6a48860760db1b604082015260600190565b6020808252601d908201527f416464726573733a2063616c6c20746f206e6f6e2d636f6e7472616374000000604082015260600190565b602080825260059082015264535244323160d81b604082015260600190565b602080825260059082015264053524432360dc1b604082015260600190565b602080825260059082015264535244313360d81b604082015260600190565b60208082526005908201526414d4910c0d60da1b604082015260600190565b6020808252602a908201527f5361666545524332303a204552433230206f7065726174696f6e20646964206e6040820152691bdd081cdd58d8d9595960b21b606082015260800190565b60208082526005908201526414d4910c4d60da1b604082015260600190565b602080825260059082015264535244303360d81b604082015260600190565b602080825260059082015264535244313760d81b604082015260600190565b60208082526005908201526429a922189960d91b604082015260600190565b602080825260059082015264535244323360d81b604082015260600190565b90815260200190565b6001600160401b0391909116815260200190565b60008219821115612df157612df1612edf565b500190565b600082612e1157634e487b7160e01b81526012600452602481fd5b500490565b6000816000190483118215151615612e3057612e30612edf565b500290565b600082821015612e4757612e47612edf565b500390565b60006001600160401b0383811690831681811015612e6c57612e6c612edf565b039392505050565b60005b83811015612e8f578181015183820152602001612e77565b838111156123b75750506000910152565b6000600019821415612eb457612eb4612edf565b5060010190565b600063ffffffff80831681811415612ed557612ed5612edf565b6001019392505050565b634e487b7160e01b600052601160045260246000fd5b634e487b7160e01b600052604160045260246000fd5b801515811461179357600080fdfea264697066735822122007ddcb0d37824ec1fe2570731a6366ad7f0102b931f31911e86e1ee4b998b18764736f6c63430008000033",
  "linkReferences": {},
  "deployedLinkReferences": {}
}